:100000000C94B1040C9400000C9400000C940000BB
:100010000C9400000C9400000C9400000C94000060
:100020000C9400000C9400000C94B3050C94000098
:100030000C9400000C9400000C9400000C94000040
:100040000C9400000C9400000C9400000C94000030
:040050000C9400000C
:10096200BFE5BDBFB8E0BEBF0E94D006CDB7DEB7BF
:100972002697CDBFDEBF21962F923F924F925F9274
:10098200B0E0B883B983B0E0BA83BB83B0E0BC8384
:10099200BD83BFEFB4BBB0EFB7BBB0E0B8BB22249E
:1009A200F6DE2DDF24E018EA0CE00A95F1F71A953D
:1009B200E1F72A95D1F700000000209185003091DF
:1009C200860000E110E0201731070CF07FC0209173
:1009D200DF003091E00000E110E0201731070CF059
:1009E20075C006B302FF33C006B301FF1EC00A8101
:1009F2001B81103009F40030B9F4B1E0BA83B0E0E1
:100A0200BB8308B3B0E80B2708BB20908500309069
:100A1200860082DF00938500109386002801B1E0F2
:100A22002B2EB0E03B2EC6DD03C0B0E0BA83BB8301
:100A32000C811D81103009F4003041F4B1E0BC8317
:100A4200B0E0BD8308B3B0E80B2708BB03C0B0E039
:100A5200BC83BD8306B302FF32C006B300FF1DC0D4
:100A620008811981103009F40030B1F4B1E0B88383
:100A7200B0E0B983B8B3B068B8BB2090DF00309063
:100A8200E0004ADF0093DF001093E0002801B2E0AB
:100A92002B2EB0E03B2E8EDD03C0B0E0B883B983CD
:100AA2000C811D81103009F4003041F4B1E0BC83A7
:100AB200B0E0BD8308B3B0E80B2708BB06C0B0E0C6
:100AC200BC83BD8308B3047008BB46C00091850097
:100AD20010918600103009F4003169F40091DF00B2
:100AE2001091E000103009F4003129F0B1E02B2E12
:100AF200B0E03B2E18DD0091850010918600103089
:100B020009F4003169F00091DF001091E00010302B
:100B120009F4003129F4B2E02B2EB0E03B2E03DDC4
:100B22000091850010918600103009F40031A1F483
:100B32000091DF001091E000103009F4003161F4FF
:100B4200B1E02B2E14DBB9EE4B2EB0E05B2EB1E000
:100B52003B2EB1E02B2E84DC30CF5F904F903F9044
:040B62002F90FFCF02
:10079000BFEFB1BB02B3007002BB1CC002B30F635A
:1007A00002BB2DC002B3066002BB29C002B30B65B9
:1007B00002BB25C002B30F6402BB21C002B30666B0
:1007C00002BB1DC002B30D6602BB19C002B30D67A8
:1007D00002BB15C0B0E02B1609F3B1E02B1611F3E4
:1007E000B2E02B1619F3B3E02B1621F3B4E02B166D
:1007F00029F3B5E02B1631F3B6E02B1639F3089543
:00080000F8
:100800002F923F924F925F9215DDB1E02B2EB0DC1C
:10081000BFE02B2EADDCB7E64B2EB0E05B2EB1E097
:100820003B2EB1E02B2E1DDEB0E64B2EB0E05B2E52
:10083000B5E03B2EB2E02B2E14DE20E030E004E0E9
:1008400010E002171307ACF03F932F93B4E12B2E67
:100850008FDC25E01FE002EF0A95F1F71A95E1F72A
:100860002A95D1F72F913F9189010F5F1F4F980172
:10087000E6CF2DE01DE208ED0A95F1F71A95E1F7B4
:100880002A95D1F700000000B1E02B2E71DCBCE00E
:100890002B2E6EDC20E030E008E110E00217130799
:1008A000ECF03F932F93BEE64B2EB0E05B2EB4E00E
:1008B0003B2EB1E02B2ED5DDB8E12B2E59DC2F914C
:1008C0003F9119E409EB0A95F1F71A95E1F7000059
:1008D000000089010F5F1F4F9801DECFB1E02B2E82
:1008E00047DCB7E84B2EB0E05B2EB5E03B2EB2E024
:1008F0002B2EB7DD2DE01DE208ED0A95F1F71A95D4
:10090000E1F72A95D1F700000000B1E02B2E30DC92
:0A0910005F904F903F902F900895E4
:10023400B0913500BD7FB0933500B0913500BE7FDD
:10024400B0933500B0913500BF77B0933500B091CD
:100254003500BF7BB0933500B0913500BF7DB093BE
:100264003500B0913500BF7EB0933500B0913400B5
:10027400B460B0933400B0913400B160B0933400F2
:10028400B0913400B061B0933400B0913400B062E6
:10029400B0933400B0913400B064B0933400B091A2
:1002A4003400B068B093340014DF13DF12DFB09170
:1002B4003500B062B0933500B0913500B061B093B1
:1002C4003500B0913500B260B0933500C6DEB09110
:1002D4003500BD7FB0933500FCDEB0913500B260CF
:1002E400B0933500BADEB0913500BD7FB0933500D0
:1002F400F0DEB0913500B260B0933500AEDEB0915F
:100304003500BD7FB0933500E4DEB0913500BF7E8B
:10031400B0933500B0913500B260B09335009DDEE6
:10032400B0913500BD7FB0933500D3DEB091350078
:10033400B260B093350091DEB0913500BD7FB093CB
:100344003500B0913500BF7DB0933500B0913500D4
:10035400B068B0933500B0913500B260B093350009
:100364007CDEB0913500BD7FB0933500B2DEB09134
:100374003500BF77B0933500B0913500B061B093CC
:100384003500B0913500B260B093350066DEB091AF
:100394003500BD7FB0933500B0913500BF7EB0937A
:1003A4003500B0913500B260B093350056DEB0919F
:1003B4003500BD7FB09335008CDEB0913500B2605E
:1003C400B09335004ADEB0913500BD7FB09335005F
:1003D400B0913500B061B0933500B0913500B26092
:1003E400B09335003ADEB0913500BD7FB09335004F
:1003F40070DEB0913500BF7EB0933500B09135000A
:10040400B260B093350029DEB0913500BD7FB09362
:100414003500B0913500B068B0933500B091350027
:10042400B064B0933500B0913500B062B09335003C
:10043400B0913500B061B0933500B0913500B26031
:10044400B09335000ADEB0913500BD7FB09335001E
:0E04540040DEB091F400B160B093F400089562
:1000D6001AE303E20A95F1F71A95E1F7000000002A
:0200E60008957B
:0C005E0002E00A95F1F700000000089590
:1001700027FAB0913500B7F9B093350026FAB0915F
:100180003500B6F9B093350025FAB0913500B5F9D0
:10019000B093350024FAB0913500B4F9B09335002E
:1001A000B091F40000903500E894B0FF689400F836
:1001B00000923500B0913500B260B09335004FDF4A
:1001C000B0913500BD7FB093350023FAB091350072
:1001D000B7F9B093350022FAB0913500B6F9B09373
:1001E000350021FAB0913500B5F9B093350020FA09
:1001F000B0913500B4F9B0933500B091F40000909F
:100200003500E894B0FF689400F800923500B09192
:100210003500B260B093350022DFB0913500BD7F6C
:10022000B0933500B091F400B0FF02C054DF01C0BC
:0402300011DF08953D
:0A00540005E80A95F1F70000089591
:100462002F920FC0B0E82B2E19C0B0EC2B2E16C065
:10047200B4E92B2E13C0B4ED2B2E10C0B0E82B2EF6
:100482000DC0B1E02B1671F3B2E02B1671F3B3E09D
:100492002B1671F3B4E02B1671F3F0CF032D01503C
:1004A200020D202E202E63DEB091F400BE7FB093A9
:1004B200F40010E0E12FF0E0E40DF51D00810023CF
:1004C20079F0E12FF0E0E40DF51D00811F932F92EA
:1004D200202ECADD2F901F91012F0F5F102FEACF20
:0E04E200B091F400B160B093F4002F90089533
:10006A00B091F400BE7FB093F4007DD0B091F4005B
:08007A00B160B093F400089599
:10091A00F7DB3F922F9246E050E00BDF8C012F90DD
:10092A003F9098012F5F3F4FA9018901020D131DC6
:10093A0018013F922F92222E26DF2F903F9050309F
:10094A0009F4463039F4D0DBCADBB8EBBABBBFB71F
:08095A00B068BFBF81010895E0
:10010A002F923F920091F5001091F600B02FB12B7B
:10011A0029F4B1E02B2EB0E03B2EC8DF0091F700A6
:10012A001091F8002091F9003091FA004DE65EE452
:10013A0066EC71E4A1DF075C1F4C2F4F3F4F022F83
:10014A00132F20E017FD2FEF322F1F77207030700A
:10015A000093F7001093F8002093F9003093FA0007
:06016A003F902F90089564
:1000B6002092F7003092F800B0E0B093F900B093C8
:1000C600FA00B1E0B093F500B0E0B093F600089501
:0000D6002A
:10008200BB27AA279927882700FF04C0840F951F42
:10009200A61FB71F440F551F661F771F369527955A
:1000A2001795079589F730502040100769F79D0191
:0400B2008C01089520
:1000F200B0E8BFBFBBE0B3BFB0E0B2BFBDE7BCBFBB
:08010200B9B7B260B9BF08955E
:0A00E800B0E4B7B9B7E8B6B908955F
:10073C00C801BA0197FB092E07260AD077FD04D011
:10074C000CD006D000201AF4709561957F4F089557
:10075C00F6F7909581959F4F0895AA1BBB1B51E10D
:10076C0007C0AA1FBB1FA617B70710F0A61BB70B15
:10077C00881F991F5A95A9F780959095BC01CD01BA
:04078C00089508952F
:1005B600CF93DF93CDB7DEB72497CDBFDEBF2196AD
:1005C6002F923F924F925F928E010A831B835F9216
:1005D6004F923F922F924AE050E08201ACD08B01BD
:1005E6004AE050E0A8D08C012F903F904F905F904A
:1005F600202F205D0A811B81F80120838E010F5F69
:100606001F4F0A831B833F922F924AE050E08201DC
:1006160092D08C012F903F90202F205D0A811B8164
:10062600F80120838E01F8013296B0E0B083B0E085
:100636003B1611F4B1E02B16A9F5B1E02B2E95DD92
:10064600B6EB4B2EB0E05B2EB1E03B2EB1E02B2E8D
:1006560005DF27E017E10BE60A95F1F71A95E1F7B2
:100666002A95D1F70000B1E02B2E7FDDBCE94B2E99
:10067600B0E05B2EB1E03B2EB1E02B2EEFDE8E011B
:100686002801B9E03B2EB2E02B2EE8DE2DE01DE27C
:1006960008ED0A95F1F71A95E1F72A95D1F70000CA
:1006A60000003AC0B0E03B1611F4B2E02B16A1F5FB
:1006B600B1E02B2E5ADDB9EA4B2EB0E05B2EB1E04D
:1006C6003B2EB1E02B2ECADE27E017E10BE60A959A
:1006D600F1F71A95E1F72A95D1F70000B1E02B2E34
:1006E60044DDBFE84B2EB0E05B2EB1E03B2EB1E01F
:1006F6002B2EB4DE8E012801B9E03B2EB2E02B2E64
:10070600ADDE2DE01DE208ED0A95F1F71A95E1F749
:100716002A95D1F7000000005F904F903F902F90F0
:0C0726002396CDBFDEBFDF91CF91089578
:100528002F923F924F925F92B0E03B1611F4B1E0E8
:100538002B16D9F43F922F92B1E02B2E15DEB3EC97
:100548004B2EB0E05B2EB1E03B2EB1E02B2E85DFC9
:100558002F903F902DE01DE208ED0A95F1F71A95CE
:10056800E1F72A95D1F700000000B0E03B1611F43E
:10057800B2E02B16B9F4B1E02B2EF6DDB1ED4B2E1F
:10058800B0E05B2EB1E03B2EB1E02B2E66DF2DE014
:100598001DE208ED0A95F1F71A95E1F72A95D1F7CA
:0E05A800000000005F904F903F902F9008954C
:0A07320005900D920197E1F708957C
:100DA000A0E6B0E0ECE0FDE084E990E00E94990369
:020DB0000895A4
:100B66000F921F922F923F924F925F926F927F92B7
:100B76008F929F92AF92BF92CF92DF92EF92FF92A7
:100B86000F931F932F933F934F935F936F937F938F
:100B96008F939F93AF93BF93CF93DF93EF93FF937F
:100BA600EF93FF93BF93BFB7BF932F922091E500BA
:100BB6003091E6000091E1001091E2002017310724
:100BC60009F070C00091E7001091E8000F5F1F4F19
:100BD6000093E7001093E8003DC0B0E1BBBBB6E070
:100BE6002B2E83DC44E050E0A6DD8B010093E10070
:100BF6001093E20051C0B0E2BBBBB6E02B2E75DC11
:100C060044E050E098DD8B010093E1001093E20090
:100C160043C0B8E0BBBBB6E02B2E67DC44E050E037
:100C26008ADD8B010093E1001093E20035C0B0E845
:100C3600BBBBB6E02B2E59DC44E050E07CDD8B01DB
:100C46000093E1001093E200B0E0B093E700B093A8
:100C5600E80022C00091E7001091E800103009F486
:100C6600013009F4BACF0091E7001091E800103086
:100C760009F4023009F4BFCF0091E7001091E800B3
:100C8600103009F4033029F20091E7001091E800D2
:100C9600103009F4043059F2B0E0B093E500B09397
:100CA600E6000AC00091E5001091E6000F5F1F4FB5
:100CB6000093E5001093E6002F90BF91BFBFBF9150
:100CC600FF91EF91FF91EF91DF91CF91BF91AF919E
:100CD6009F918F917F916F915F914F913F912F914E
:100CE6001F910F91FF90EF90DF90CF90BF90AF9044
:100CF6009F908F907F906F905F904F903F902F9036
:060D06001F900F901895EC
:1004F00007B1007E07B9022907B9B6B1B064B6B931
:1005000006B106FF01C0FCCF04B10093E30005B1C2
:100510000093E4000091E400302F22270091E300D3
:0805200010E0022B132B0895DB
:070D0C007A61727572690043
:070D13004A6F6320646500D4
:100D1A005065206C6F637572692C66697469206707
:070D2A006174612E2E2E0002
:020D31000000C0
:080D3300537461727421210068
:0D0D3B0050756E6374616A2023323A200007
:0D0D480050756E6374616A2023313A2000FB
:0D0D55004A756361746F72756C2023320063
:0D0D62004A756361746F72756C2023310057
:0E0D6F00412063617374696761742023310051
:0E0D7D00412063617374696761742023320042
:020D8B00000066
:020D8D00630001
:010D8F000063
:010D90000062
:020D9100000060
:020D930000005E
:0B0D95004567616C69746174652100A2
:00000001FF
